{
  "contractName": "TicketSale",
  "abi": [
    {
      "inputs": [
        {
          "internalType": "uint256",
          "name": "_numTickets",
          "type": "uint256"
        },
        {
          "internalType": "uint256",
          "name": "_price",
          "type": "uint256"
        }
      ],
      "stateMutability": "nonpayable",
      "type": "constructor"
    },
    {
      "inputs": [
        {
          "internalType": "address",
          "name": "",
          "type": "address"
        }
      ],
      "name": "addressToTicketId",
      "outputs": [
        {
          "internalType": "uint256",
          "name": "",
          "type": "uint256"
        }
      ],
      "stateMutability": "view",
      "type": "function"
    },
    {
      "inputs": [],
      "name": "manager",
      "outputs": [
        {
          "internalType": "address",
          "name": "",
          "type": "address"
        }
      ],
      "stateMutability": "view",
      "type": "function"
    },
    {
      "inputs": [],
      "name": "numTickets",
      "outputs": [
        {
          "internalType": "uint256",
          "name": "",
          "type": "uint256"
        }
      ],
      "stateMutability": "view",
      "type": "function"
    },
    {
      "inputs": [],
      "name": "serviceFeePercentage",
      "outputs": [
        {
          "internalType": "uint256",
          "name": "",
          "type": "uint256"
        }
      ],
      "stateMutability": "view",
      "type": "function"
    },
    {
      "inputs": [
        {
          "internalType": "address",
          "name": "",
          "type": "address"
        }
      ],
      "name": "swapOffers",
      "outputs": [
        {
          "internalType": "address",
          "name": "",
          "type": "address"
        }
      ],
      "stateMutability": "view",
      "type": "function"
    },
    {
      "inputs": [
        {
          "internalType": "uint256",
          "name": "",
          "type": "uint256"
        }
      ],
      "name": "ticketIdToOwner",
      "outputs": [
        {
          "internalType": "address",
          "name": "",
          "type": "address"
        }
      ],
      "stateMutability": "view",
      "type": "function"
    },
    {
      "inputs": [],
      "name": "ticketPrice",
      "outputs": [
        {
          "internalType": "uint256",
          "name": "",
          "type": "uint256"
        }
      ],
      "stateMutability": "view",
      "type": "function"
    },
    {
      "inputs": [
        {
          "internalType": "uint256",
          "name": "ticketId",
          "type": "uint256"
        }
      ],
      "name": "buyTicket",
      "outputs": [],
      "stateMutability": "payable",
      "type": "function"
    },
    {
      "inputs": [
        {
          "internalType": "address",
          "name": "person",
          "type": "address"
        }
      ],
      "name": "getTicketOf",
      "outputs": [
        {
          "internalType": "uint256",
          "name": "",
          "type": "uint256"
        }
      ],
      "stateMutability": "view",
      "type": "function"
    },
    {
      "inputs": [
        {
          "internalType": "address",
          "name": "partner",
          "type": "address"
        }
      ],
      "name": "offerSwap",
      "outputs": [],
      "stateMutability": "nonpayable",
      "type": "function"
    },
    {
      "inputs": [
        {
          "internalType": "address",
          "name": "partner",
          "type": "address"
        }
      ],
      "name": "acceptSwap",
      "outputs": [],
      "stateMutability": "nonpayable",
      "type": "function"
    },
    {
      "inputs": [
        {
          "internalType": "uint256",
          "name": "ticketId",
          "type": "uint256"
        }
      ],
      "name": "returnTicket",
      "outputs": [],
      "stateMutability": "nonpayable",
      "type": "function"
    }
  ],
  "bytecode": "0x6080604052600a6003553480156200001657600080fd5b50604051620012ee380380620012ee83398181016040528101906200003c9190620000d2565b336000806101000a81548173ffffffffffffffffffffffffffffffffffffffff021916908373ffffffffffffffffffffffffffffffffffffffff1602179055508160028190555080600181905550505062000119565b600080fd5b6000819050919050565b620000ac8162000097565b8114620000b857600080fd5b50565b600081519050620000cc81620000a1565b92915050565b60008060408385031215620000ec57620000eb62000092565b5b6000620000fc85828601620000bb565b92505060206200010f85828601620000bb565b9150509250929050565b6111c580620001296000396000f3fe6080604052600436106100a75760003560e01c806367dd74ca1161006457806367dd74ca146101d25780638eb3a051146101ee578063b6761e251461022b578063da30bd1a14610254578063ee5281481461027d578063fe99d8bc146102ba576100a7565b80630412f4ab146100ac5780631209b1f6146100e95780632e62864a14610114578063353d90ec14610151578063481c6a751461017c578063603ef649146101a7575b600080fd5b3480156100b857600080fd5b506100d360048036038101906100ce9190610c0f565b6102e3565b6040516100e09190610c55565b60405180910390f35b3480156100f557600080fd5b506100fe61032c565b60405161010b9190610c55565b60405180910390f35b34801561012057600080fd5b5061013b60048036038101906101369190610c0f565b610332565b6040516101489190610c7f565b60405180910390f35b34801561015d57600080fd5b50610166610365565b6040516101739190610c55565b60405180910390f35b34801561018857600080fd5b5061019161036b565b60405161019e9190610c7f565b60405180910390f35b3480156101b357600080fd5b506101bc61038f565b6040516101c99190610c55565b60405180910390f35b6101ec60048036038101906101e79190610cc6565b610395565b005b3480156101fa57600080fd5b5061021560048036038101906102109190610c0f565b6105e8565b6040516102229190610c55565b60405180910390f35b34801561023757600080fd5b50610252600480360381019061024d9190610c0f565b610600565b005b34801561026057600080fd5b5061027b60048036038101906102769190610cc6565b610785565b005b34801561028957600080fd5b506102a4600480360381019061029f9190610cc6565b610935565b6040516102b19190610c7f565b60405180910390f35b3480156102c657600080fd5b506102e160048036038101906102dc9190610c0f565b610968565b005b6000600460008373ffffffffffffffffffffffffffffffffffffffff1673ffffffffffffffffffffffffffffffffffffffff168152602001908152602001600020549050919050565b60015481565b60066020528060005260406000206000915054906101000a900473ffffffffffffffffffffffffffffffffffffffff1681565b60025481565b60008054906101000a900473ffffffffffffffffffffffffffffffffffffffff1681565b60035481565b600181101580156103a857506002548111155b6103e7576040517f08c379a00000000000000000000000000000000000000000000000000000000081526004016103de90610d50565b60405180910390fd5b600154341461042b576040517f08c379a000000000000000000000000000000000000000000000000000000000815260040161042290610dbc565b60405180910390fd5b6000600460003373ffffffffffffffffffffffffffffffffffffffff1673ffffffffffffffffffffffffffffffffffffffff16815260200190815260200160002054146104ad576040517f08c379a00000000000000000000000000000000000000000000000000000000081526004016104a490610e28565b60405180910390fd5b600073ffffffffffffffffffffffffffffffffffffffff166005600083815260200190815260200160002060009054906101000a900473ffffffffffffffffffffffffffffffffffffffff1673ffffffffffffffffffffffffffffffffffffffff161461054f576040517f08c379a000000000000000000000000000000000000000000000000000000000815260040161054690610e94565b60405180910390fd5b80600460003373ffffffffffffffffffffffffffffffffffffffff1673ffffffffffffffffffffffffffffffffffffffff16815260200190815260200160002081905550336005600083815260200190815260200160002060006101000a81548173ffffffffffffffffffffffffffffffffffffffff021916908373ffffffffffffffffffffffffffffffffffffffff16021790555050565b60046020528060005260406000206000915090505481565b6000600460003373ffffffffffffffffffffffffffffffffffffffff1673ffffffffffffffffffffffffffffffffffffffff1681526020019081526020016000205411610682576040517f08c379a000000000000000000000000000000000000000000000000000000000815260040161067990610f00565b60405180910390fd5b6000600460008373ffffffffffffffffffffffffffffffffffffffff1673ffffffffffffffffffffffffffffffffffffffff1681526020019081526020016000205411610704576040517f08c379a00000000000000000000000000000000000000000000000000000000081526004016106fb90610f92565b60405180910390fd5b80600660003373ffffffffffffffffffffffffffffffffffffffff1673ffffffffffffffffffffffffffffffffffffffff16815260200190815260200160002060006101000a81548173ffffffffffffffffffffffffffffffffffffffff021916908373ffffffffffffffffffffffffffffffffffffffff16021790555050565b6005600082815260200190815260200160002060009054906101000a900473ffffffffffffffffffffffffffffffffffffffff1673ffffffffffffffffffffffffffffffffffffffff163373ffffffffffffffffffffffffffffffffffffffff1614610826576040517f08c379a000000000000000000000000000000000000000000000000000000000815260040161081d90610ffe565b60405180910390fd5b600060646003546064610839919061104d565b6001546108469190611081565b61085091906110f2565b90503373ffffffffffffffffffffffffffffffffffffffff166108fc829081150290604051600060405180830381858888f19350505050158015610898573d6000803e3d6000fd5b5060006005600084815260200190815260200160002060006101000a81548173ffffffffffffffffffffffffffffffffffffffff021916908373ffffffffffffffffffffffffffffffffffffffff1602179055506000600460003373ffffffffffffffffffffffffffffffffffffffff1673ffffffffffffffffffffffffffffffffffffffff168152602001908152602001600020819055505050565b60056020528060005260406000206000915054906101000a900473ffffffffffffffffffffffffffffffffffffffff1681565b3373ffffffffffffffffffffffffffffffffffffffff16600660008373ffffffffffffffffffffffffffffffffffffffff1673ffffffffffffffffffffffffffffffffffffffff16815260200190815260200160002060009054906101000a900473ffffffffffffffffffffffffffffffffffffffff1673ffffffffffffffffffffffffffffffffffffffff1614610a35576040517f08c379a0000000000000000000000000000000000000000000000000000000008152600401610a2c9061116f565b60405180910390fd5b6000600460003373ffffffffffffffffffffffffffffffffffffffff1673ffffffffffffffffffffffffffffffffffffffff1681526020019081526020016000205490506000600460008473ffffffffffffffffffffffffffffffffffffffff1673ffffffffffffffffffffffffffffffffffffffff16815260200190815260200160002054905080600460003373ffffffffffffffffffffffffffffffffffffffff1673ffffffffffffffffffffffffffffffffffffffff1681526020019081526020016000208190555081600460008573ffffffffffffffffffffffffffffffffffffffff1673ffffffffffffffffffffffffffffffffffffffff16815260200190815260200160002081905550600660008473ffffffffffffffffffffffffffffffffffffffff1673ffffffffffffffffffffffffffffffffffffffff16815260200190815260200160002060006101000a81549073ffffffffffffffffffffffffffffffffffffffff0219169055505050565b600080fd5b600073ffffffffffffffffffffffffffffffffffffffff82169050919050565b6000610bdc82610bb1565b9050919050565b610bec81610bd1565b8114610bf757600080fd5b50565b600081359050610c0981610be3565b92915050565b600060208284031215610c2557610c24610bac565b5b6000610c3384828501610bfa565b91505092915050565b6000819050919050565b610c4f81610c3c565b82525050565b6000602082019050610c6a6000830184610c46565b92915050565b610c7981610bd1565b82525050565b6000602082019050610c946000830184610c70565b92915050565b610ca381610c3c565b8114610cae57600080fd5b50565b600081359050610cc081610c9a565b92915050565b600060208284031215610cdc57610cdb610bac565b5b6000610cea84828501610cb1565b91505092915050565b600082825260208201905092915050565b7f496e76616c6964207469636b6574206964000000000000000000000000000000600082015250565b6000610d3a601183610cf3565b9150610d4582610d04565b602082019050919050565b60006020820190508181036000830152610d6981610d2d565b9050919050565b7f496e636f727265637420657468657220616d6f756e742073656e740000000000600082015250565b6000610da6601b83610cf3565b9150610db182610d70565b602082019050919050565b60006020820190508181036000830152610dd581610d99565b9050919050565b7f596f7520616c726561647920686176652061207469636b657400000000000000600082015250565b6000610e12601983610cf3565b9150610e1d82610ddc565b602082019050919050565b60006020820190508181036000830152610e4181610e05565b9050919050565b7f5469636b657420616c726561647920736f6c6400000000000000000000000000600082015250565b6000610e7e601383610cf3565b9150610e8982610e48565b602082019050919050565b60006020820190508181036000830152610ead81610e71565b9050919050565b7f596f7520646f6e277420686176652061207469636b657420746f207377617000600082015250565b6000610eea601f83610cf3565b9150610ef582610eb4565b602082019050919050565b60006020820190508181036000830152610f1981610edd565b9050919050565b7f506172746e657220646f65736e277420686176652061207469636b657420746f60008201527f2073776170000000000000000000000000000000000000000000000000000000602082015250565b6000610f7c602583610cf3565b9150610f8782610f20565b604082019050919050565b60006020820190508181036000830152610fab81610f6f565b9050919050565b7f596f7520646f6e2774206f776e2074686973207469636b657400000000000000600082015250565b6000610fe8601983610cf3565b9150610ff382610fb2565b602082019050919050565b6000602082019050818103600083015261101781610fdb565b9050919050565b7f4e487b7100000000000000000000000000000000000000000000000000000000600052601160045260246000fd5b600061105882610c3c565b915061106383610c3c565b925082820390508181111561107b5761107a61101e565b5b92915050565b600061108c82610c3c565b915061109783610c3c565b92508282026110a581610c3c565b915082820484148315176110bc576110bb61101e565b5b5092915050565b7f4e487b7100000000000000000000000000000000000000000000000000000000600052601260045260246000fd5b60006110fd82610c3c565b915061110883610c3c565b925082611118576111176110c3565b5b828204905092915050565b7f4e6f2073776170206f666665722066726f6d20706172746e6572000000000000600082015250565b6000611159601a83610cf3565b915061116482611123565b602082019050919050565b600060208201905081810360008301526111888161114c565b905091905056fea2646970667358221220ca636a731d5cb6664460527cdc754ad2b55d0bcdb03fd21d68ff58cd11212bbb64736f6c63430008120033",
  "immutableReferences": {},
  "source": "pragma solidity ^0.8.17;\r\n\r\ncontract TicketSale {\r\n    address public manager;\r\n    uint public ticketPrice;\r\n    uint public numTickets;\r\n    uint public serviceFeePercentage = 10;\r\n    \r\n    mapping(address => uint) public addressToTicketId;\r\n    mapping(uint => address) public ticketIdToOwner;\r\n    mapping(address => address) public swapOffers;\r\n    \r\n    constructor(uint _numTickets, uint _price) {\r\n        manager = msg.sender;\r\n        numTickets = _numTickets;\r\n        ticketPrice = _price;\r\n    }\r\n\r\n    function buyTicket(uint ticketId) public payable {\r\n    require(ticketId >= 1 && ticketId <= numTickets, \"Invalid ticket id\");\r\n    require(msg.value == ticketPrice, \"Incorrect ether amount sent\");\r\n    require(addressToTicketId[msg.sender] == 0, \"You already have a ticket\");\r\n    require(ticketIdToOwner[ticketId] == address(0), \"Ticket already sold\");\r\n\r\n    addressToTicketId[msg.sender] = ticketId;\r\n    ticketIdToOwner[ticketId] = msg.sender;\r\n    }\r\n\r\n\r\n    function getTicketOf(address person) public view returns (uint) {\r\n        return addressToTicketId[person];\r\n    }\r\n\r\n    function offerSwap(address partner) public {\r\n        require(addressToTicketId[msg.sender] > 0, \"You don't have a ticket to swap\");\r\n        require(addressToTicketId[partner] > 0, \"Partner doesn't have a ticket to swap\");\r\n        swapOffers[msg.sender] = partner;\r\n    }\r\n\r\n    function acceptSwap(address partner) public {\r\n    require(swapOffers[partner] == msg.sender, \"No swap offer from partner\");\r\n    uint myTicketId = addressToTicketId[msg.sender];\r\n    uint partnerTicketId = addressToTicketId[partner];\r\n    addressToTicketId[msg.sender] = partnerTicketId;\r\n    addressToTicketId[partner] = myTicketId;\r\n    delete swapOffers[partner];\r\n    }\r\n\r\n\r\n    function returnTicket(uint ticketId) public {\r\n        require(msg.sender == ticketIdToOwner[ticketId], \"You don't own this ticket\");\r\n        \r\n        uint refundAmount = (ticketPrice * (100 - serviceFeePercentage)) / 100;\r\n        payable(msg.sender).transfer(refundAmount);\r\n        ticketIdToOwner[ticketId] = address(0);\r\n        addressToTicketId[msg.sender] = 0;\r\n    }\r\n}",
  "sourcePath": "C:\\Users\\ammar\\Desktop\\CSC494\\TicketSale_Project\\contracts\\TicketSale.sol",
  "compiler": {
    "name": "solc",
    "version": "0.8.18+commit.87f61d96.Emscripten.clang"
  },
  "schemaVersion": "3.4.16",
  "updatedAt": "2023-10-27T19:32:41.055Z",
  "devdoc": {
    "kind": "dev",
    "methods": {},
    "version": 1
  },
  "userdoc": {
    "kind": "user",
    "methods": {},
    "version": 1
  }
}